:020000040800F2
:1000000080350020B5180008591800086518000848
:100010006D180008751800087D1800080000000021
:10002000000000000000000000000000851800082B
:1000300091180008000000009D180008A918000889
:10004000B5180008B5180008B5180008B51800085C
:10005000B5180008B5180008B5180008B51800084C
:10006000B5180008B5180008B5180008B51800083C
:10007000B5180008B5180008B5180008B51800082C
:10008000B5180008B5180008B5180008B51800081C
:10009000B5180008B5180008B5180008B51800080C
:1000A000B5180008B5180008B5180008B5180008FC
:1000B00025180008B5180008B5180008B51800087C
:1000C000B5180008B5180008B5180008B5180008DC
:1000D000B5180008B5180008B5180008A90B0008E5
:1000E000B5180008C90A0008B5180008B5180008B6
:1000F000B5180008B5180008B5180008B5180008AC
:10010000B5180008B5180008B5180008B51800089B
:10011000B5180008B518000880B58AB000AFF8809F
:10012000B9807A803B80B7F90020B7F90430D31A40
:1001300083EAE372A2EBE372B7F90210B7F9063073
:10014000CB1A002BB8BF5B429A42D4BF00230123D5
:10015000DBB27B84B7F92230002B0DD0B7F9063023
:10016000FB61BB88FB80FB69BB80B7F90230BB61D8
:100170003B887B80BB693B80B7F90620B7F902302A
:100180009A420DDDB7F906307B617B88FB807B6985
:100190007B80B7F904303B613B88BB803B693B8087
:1001A0007A88FB88D31A9BB2FB81B7F90020B7F994
:1001B0000430D31A002BB8BF5B42BB81B7F90E30B5
:1001C000DA0F13445B10FB84B7F90420B7F9003051
:1001D0009A4202DA0123BB8432E04FF6FF73BB84FC
:1001E0002EE0B7F92230002B0AD0B7F90410B7F986
:1001F00006203B8E084611461A4602F0B1FB09E084
:10020000B7F90610B7F904203B8E084611461A4686
:1002100002F0A6FBFA8CBB89D31A9BB2FB84B7F918
:100220002630002B09DABA88BB8C13449BB2BB8002
:10023000FA8CFB8913449BB2FB84FB880133FB805F
:10024000B7F90620B7F902309A42CADD2837BD4611
:1002500080BD00BF90B585B002AFF880B9807A80CC
:100260003B80BA887B8813449BB2013B9BB29BB214
:10027000B7F90600B7F90410B7F906201BB23C889D
:100280000094FFF749FF0C37BD4690BD80B584B0A0
:1002900000AFF880B9807A803B80FB88FB810BE05F
:1002A000B7F90E00B7F90410B7F900203B8BFFF740
:1002B000D1FFFB890133FB81B7F90E20B7F9061096
:1002C000B7F902300B449A42EADB1037BD4680BDD5
:1002D00080B584B000AF78600023FB6009E0FB6864
:1002E0007A6813441B78184600F00CF8FB68013359
:1002F000FB60FB687A6813441B78002BEFD1103742
:10030000BD4680BDB0B584B002AF0346FB71FB793A
:100310000A2B0FD12B4B1B78DB009AB22A4B1B8880
:100320009BB213449BB29AB2274B1A80274B0422EC
:100330001A8043E0FB790D2B40D0244B1988224BC7
:100340001A88234B1B88234805881E48047808B266
:1003500011B2FA790095019400F040F8194B1B781E
:100360001A46520013445B009AB2184B1B889BB28A
:1003700013449BB29AB2154B1A80174B1B78002B73
:100380001CD0124B1B8819B20E4B1B781A46134611
:1003900092009B1A5B0003F5C67399420EDD094B70
:1003A0001B78DB009AB2084B1B889BB213449BB2AC
:1003B0009AB2054B1A80054B04221A800837BD46B5
:1003C000B0BD00BF04000020380000200000002065
:1003D000020000203A0000200500002090B587B000
:1003E00002AFF880B980FA703B80B7F90630B3F5F8
:1003F000C87F18DAB7F90430EF2B14DCB7F9061010
:1004000097F8242013465B0013445B000B44013B28
:10041000002B08DBB7F9042097F82430DB001344E5
:10042000013B002B00DAB9E00023FB73B1E097F940
:100430000F30052B02D100237B7309E0FA781346B5
:100440009B001A4497F90F301344564AD35C7B73D0
:100450000023BB7395E07B7B03F00103002B43D0AB
:1004600097F82430012B16D197F90F309AB2FB88F8
:1004700013449BB29AB297F90E3099B2BB880B44E1
:100480009BB29BB211B21AB23B88084611461A467B
:1004900002F066FA6FE097F90F309BB297F82420CC
:1004A00092B202FB03F39AB2FB8813449BB298B258
:1004B00097F90E309BB297F8242092B202FB03F317
:1004C0009AB2BB8813449BB299B297F824309AB27F
:1004D00097F824309BB200B209B212B21BB23C882A
:1004E0000094FFF7D3FE46E03A8C3B889A4242D014
:1004F00097F82430012B16D197F90F309AB2FB8868
:1005000013449BB29AB297F90E3099B2BB880B4450
:100510009BB29BB211B21AB23B8C084611461A46E6
:1005200002F01EFA27E097F90F309BB297F82420CB
:1005300092B202FB03F39AB2FB8813449BB298B2C7
:1005400097F90E309BB297F8242092B202FB03F386
:100550009AB2BB8813449BB299B297F824309AB2EE
:1005600097F824309BB200B209B212B21BB23C8C95
:100570000094FFF78BFE7B7B5B087B73BB7B0133B7
:10058000BB7397F90E30072B7FF765AFFB7B013309
:10059000FB7397F90F30052B7FF749AF1437BD4632
:1005A00090BD00BF702D000880B483B000AF02463C
:1005B0000B46FA80BB80054BFA881A80044BBA8838
:1005C0001A800C37BD465DF8047B704700000020A0
:1005D0003800002080B483B000AF0346FB71FB7984
:1005E000002B01D0FB7900E00123034A13700C3784
:1005F000BD465DF8047B70470400002080B483B0E2
:1006000000AF02460B46FA80BB80FB88002B0CBF74
:1006100000230123DBB21A46074B1A80BB88002B4C
:100620000CBF00230123DBB21A46044B1A800C379F
:10063000BD465DF8047B7047020000203A000020B0
:1006400080B487B000AF7860396000237B610023FD
:100650003B610023FB6000237B617CE07B6901221E
:1006600002FA03F33B613B681A683B691340FB6085
:10067000FA683B699A426BD17B681A687B695B00B8
:10068000032101FA03F3DB431A407B681A607B689D
:100690001A683B681B7919467B695B0001FA03F312
:1006A0001A437B681A603B681B79012B03D03B68B7
:1006B0001B79022B34D17B689A687B695B0003212C
:1006C00001FA03F3DB431A407B689A607B689A68FF
:1006D0003B685B7919467B695B0001FA03F31A43B7
:1006E0007B689A607B689B889AB27B699BB2012188
:1006F00001FA03F39BB2DB439BB213409AB27B68CF
:100700009A807B689B889AB23B689B7919467B6983
:100710009BB201FA03F39BB213439AB27B689A80AF
:100720007B68DA687B699BB25B00032101FA03F303
:10073000DB431A407B68DA607B68DA683B68DB7908
:1007400019467B695B0001FA03F31A437B68DA60A0
:100750007B6901337B617B690F2B7FF67FAF1C3791
:10076000BD465DF8047B704780B483B000AF78600D
:100770007B684FF6FF721A607B6800221A717B68F3
:1007800000225A717B6800229A717B680022DA711C
:100790000C37BD465DF8047B704700BF80B483B062
:1007A00000AF78600B467B807B687A881A830C37B1
:1007B000BD465DF8047B704780B483B000AF7860BD
:1007C0000B467B807B687A885A830C37BD465DF880
:1007D000047B704780B485B000AF786013460A464A
:1007E0007A807B700023FB600023BB607A787B8873
:1007F00003F007039B0002FA03F3FB607B88DB082E
:100800009BB21A467B88DB089BB219467B6808318D
:1008100053F821107B8803F007039B000F2000FA98
:1008200003F3DB4319407B68083243F822107B88CE
:10083000DB089BB21A467B68083253F82220FB681B
:100840001343BB607B88DB089BB21A467B68083287
:10085000B96843F822101437BD465DF8047B704731
:1008600080B483B000AF0346FB71044BFA791A6081
:100870000C37BD465DF8047B704700BF20000E4278
:1008800080B485B000AF78600B46FB700023FB603E
:100890000F4B1B68FB60FB6823F00303FB60FA68E7
:1008A0007B681343FB600A4BFA681A60094B094ADC
:1008B000126922F004021A61FB78012B01D130BFCA
:1008C00000E020BF1437BD465DF8047B704700BFD1
:1008D0000070004000ED00E080B500AF4FF08050A8
:1008E000012100F03DFC0120FFF7BAFF012000F0DC
:1008F000EBFA00BF492000F08DFC0346002BF9D035
:100900004FF4803000F0CCFB054BFF221A60054B02
:100910007F221A60012000F0F5FB01F02BFB80BD67
:10092000440000204000002080B582B000AF134694
:100930000246FA710A46BA717B71224B0022DA70C4
:10094000204BFA791A701F4BBA795A701D4B7A797D
:100950009A7000201B4901F049FB0346002B00D18F
:10096000FEE7194B01221A704FF48070002101F04C
:10097000B1FC164B0022DA70144B00221A70134B94
:1009800000225A70114B00229A70104B31221A73B8
:100990000E4B00229A600D4B0D4A5A6000204FF416
:1009A00080710A4A01F0FAFB4FF48050012101F0F6
:1009B000DFFC4FF48070012101F08CFC0837BD464C
:1009C00080BD00BF78000020680000205800002093
:1009D0000080808080B586B000AF13460246FA7171
:1009E0000A46BA717B71FFF777FF1F4B1A681F4BDE
:1009F0005A601F4B1A681D4B9A601C4B00221A60EC
:100A00001A4801F033FA0346002B00D1FEE7F979CA
:100A1000BA797B79084611461A46FFF785FF4FF4ED
:100A2000003000F043FA4FF40033FB6000233B74C6
:100A300008237B740123BB7407F10C03184600F0F4
:100A4000C7F929233B7500237B750023BB75012360
:100A5000FB7507F11403184601F0AAF9054B0122B2
:100A60001A701837BD4680BD400000206C00002081
:100A7000440000205400002080B582B000AF7860B0
:100A800039600F4B1B78002B0ED000200D4901F070
:100A900037FB0C4B1B781A467B681A60094B5B7856
:100AA0001A463B681A6007E07B684FF0FF321A6015
:100AB0003B684FF0FF321A600837BD4680BD00BF6B
:100AC000540000207800002080B500AF4FF4805023
:100AD00001F08AFC0346002B0AD04FF4805001F04D
:100AE000BBFC4FF4003000F0E1F9024B01221A7018
:100AF00080BD00BF6800002080B588B000AF042032
:100B0000012100F00FFB4FF44063BB6102233B77F0
:100B100003237B770023BB770123FB7707F11803BF
:100B20001F481946FFF78CFD1D480A210722FFF7D1
:100B300051FE1B480B210722FFF74CFE27233B7178
:100B400000237B710023BB710123FB713B1D184601
:100B500001F02EF94FF48020012100F001FB4FF449
:100B60009643BB600023BB810023FB8100233B82B3
:100B70000023BB820C237B8207F108030948194636
:100B800000F0CAFE074840F22551012200F0A8FFFC
:100B90000448012100F074FF2037BD4680BD00BF2E
:100BA000000802400048004080B582B000AF1A48FB
:100BB00040F2255100F0DCFF0346002B29D01648F7
:100BC00000F07EFF0346DBB203F07F03FB71134BA3
:100BD0001B781A46124B1B889BB29A420DD9FB799F
:100BE000002B0AD00E4B1B889BB25A1C91B20C4AA8
:100BF00011800C4AF979D1540BE0094B1B889BB248
:100C0000084A0021D154064B00221A80064B0122CB
:100C10001A700837BD4680BD0048004034000020EF
:100C2000520000207C0000204501002080B400AF6D
:100C3000064B00221A60064B07221A60054B002261
:100C40001A60BD465DF8047B704700BF600100205C
:100C5000580100205C01002080B584B000AF7860AE
:100C6000786802F055F80346FB60264B1B68072B9B
:100C700001DD00F04FF8244B1B685A1C234B134036
:100C8000002B03DA013B63F0070301331A461E4BC6
:100C90001A60FB68232B1DDD1B4B1A6813469B0053
:100CA0001344DB009B1A1A4A13441846796823221E
:100CB00001F06EFF144B1A6813469B001344DB00CF
:100CC0009B1A134A1344233318462E21032201F0A2
:100CD000D5FF0EE00C4B1A6813469B001344DB0053
:100CE0009B1A0B4A1A44FB68104679681A4601F0B1
:100CF0004FFF044B1B685A1C024B1A601037BD464D
:100D000080BD00BF5C01002058010020070000806A
:100D10006401002080B400AF0D4B1B68002B12DD76
:100D20000C4B1B685A1C0C4B1340002B03DA013B85
:100D300063F0070301331A46064B1A60044B1B6825
:100D40005A1E034B1A60BD465DF8047B704700BF16
:100D50005C010020600100200700008080B483B0A7
:100D600000AF7860174B1B687A689A4210DD7B6889
:100D7000072B0DDC134B1A687B68D31A03F10802AA
:100D800013469B001344DB009B1A0F4A134412E0E6
:100D90000C4B1B687A689A420BDC0A4B1A687B681A
:100DA000D21A13469B001344DB009B1A064A1344D5
:100DB00001E0064B1B6818460C37BD465DF8047B06
:100DC000704700BF58010020640100200800002087
:100DD00080B485B000AF78600023FB60324BFB60CD
:100DE0007B689B79002B4DD02F4B2F4A11687A6876
:100DF0001268D2430A401A602B4B2B4A51687A681A
:100E00001268D2430A405A607B681B79FA6813441F
:100E1000FB60FB68FA6811687A6812680A431A6016
:100E2000214B214A91687A681268D2430A409A603D
:100E30001D4B1D4AD1687A681268D2430A40DA60B5
:100E40007B685B79102B0ED1174B174A91687A6833
:100E500012680A439A60144B134AD1687A68126880
:100E60000A43DA601BE0104BFB607B685B79FA6831
:100E70001344FB60FB68FA6811687A6812680A43D9
:100E80001A600CE07B681B79FA681344FB60FB680E
:100E9000FA6811687A681268D2430A401A601437F7
:100EA000BD465DF8047B70470004014080B483B008
:100EB00000AF7860034B7A685A610C37BD465DF825
:100EC000047B70470004014080B483B000AF034648
:100ED000FB71054B00221A70034BFA791A700C371C
:100EE000BD465DF8047B70473538024080B489B058
:100EF00000AF78600023FB610023BB6100237B61AE
:100F000000233B610023FB600023BB605F4B9B68B9
:100F100003F00C03FB61FB690C2B65D801A252F8AE
:100F200023F000BF590F0008E90F0008E90F00087F
:100F3000E90F0008790F0008E90F0008E90F000821
:100F4000E90F0008810F0008E90F0008E90F000809
:100F5000E90F0008890F00084C4B5B6803F46043FD
:100F60005B0BBB60BB6801334FF4004202FA03F332
:100F70001A467B681A6047E07B68454A1A6043E07E
:100F80007B68444A1A603FE0404B9B6803F470134F
:100F9000BB613E4B9B6803F440037B61BB699B0CC8
:100FA0003D4AD35CDBB2BB617B699B0D01337B6146
:100FB000364B9B6803F480333B613B69002B09D1BE
:100FC000BB69334A02FB03F27B69B2FBF3F27B6835
:100FD0001A6019E0BB692F4A02FB03F27B69B2FB7E
:100FE000F3F27B681A600FE0284B5B6803F4604300
:100FF0005B0BBB60BB6801334FF4004202FA03F3A2
:101000001A467B681A6000BF204B9B6803F0F00310
:10101000FB61FB691B09FB61204AFB6913441B78D8
:10102000DBB2FB607B681A68FB68DA407B685A6059
:10103000164B9B6803F4E063FB61FB691B0AFB61D1
:10104000164AFB6913441B78DBB2FB607B685A6865
:10105000FB68DA407B689A600C4B9B6803F4605332
:10106000FB61FB69DB0AFB610C4AFB6913441B78DB
:10107000DBB2FB607B685A68FB68DA407B68DA6049
:101080002437BD465DF8047B704700BF003802403E
:101090000024F40000127A000C0000201800002048
:1010A00080B485B000AF78600023FB607B6803F4F8
:1010B0004033B3F5403F0FD1114B1B68FB60FB6819
:1010C00023F0C043FB607B6803F0C043FA6813431E
:1010D000FB600B4BFA681A60094B094A526B22F409
:1010E00040325A63064B064A516B7A6802F440322A
:1010F0000A435A631437BD465DF8047B704700BF4E
:101100000038024080B483B000AF0346FB71044B4B
:10111000FA791A600C37BD465DF8047B704700BF52
:10112000D806474280B483B000AF78600B46FB70AE
:10113000FB78002B06D0094B084AD1697A680A432C
:10114000DA6106E0054B054AD1697A68D2430A4064
:10115000DA610C37BD465DF8047B70470038024009
:1011600080B483B000AF78600B46FB70FB78002B37
:1011700006D0094B084A516A7A680A435A6206E067
:10118000054B054A516A7A68D2430A405A620C37C5
:10119000BD465DF8047B70470038024080B483B0E0
:1011A00000AF78600B46FB70FB78002B06D0094B34
:1011B000084A51697A680A435A6106E0054B054AB4
:1011C00051697A68D2430A405A610C37BD465DF8CE
:1011D000047B70470038024080B483B000AF786071
:1011E0000B46FB70FB78002B06D0094B084A91692F
:1011F0007A680A439A6106E0054B054A91697A6864
:10120000D2430A409A610C37BD465DF8047B7047B3
:101210000038024080B487B000AF0346FB71002362
:10122000FB6000237B610023FB74FB795B09DBB26D
:10123000FB60FB68012B03D10F4B1B687B6102E055
:101240000D4B5B6B7B61FB7903F01F03FB60FB685D
:101250007A6922FA03F303F00103002B02D0012381
:10126000FB7401E00023FB74FB7C18461C37BD4671
:101270005DF8047B704700BF0038024080B500AFC6
:10128000144B144A126842F480721A60114A114BCE
:101290009968114B0B4093600E4A0E4B1B6823F06C
:1012A000885323F0011313600A4B0A4A126822F490
:1012B00080221A60074B074A926822F47D029A60E6
:1012C000044B0022DA6000F00BF8044B4FF0006290
:1012D0009A6080BD003802400CC0FF8800ED00E03D
:1012E00080B500AF012000F011F80346002B0BD1B0
:1012F000002000F00BF80346002B05D100F09EF80B
:101300000346002B00D1FEE780BD00BF80B485B04E
:1013100000AF0346FB710023FB600023BB60444B1E
:10132000434A126822F480321A60FB79002B06D0FF
:101330003F4B3F4A126842F480221A6005E03C4B62
:101340003B4A126822F480221A60394B384A1268EC
:1013500042F480321A60364B1B6803F40033BB60E2
:10136000FB680133FB60BB68002B03D1FB68B3F55E
:10137000A06FF0D12E4B1B6803F40033002B50D02C
:101380002C4B2C4A126842F004021A60294B294A5D
:10139000126842F002021A60264B264A126842F096
:1013A00001021A60224B224A526A42F080525A626B
:1013B000214B4FF400621A6000BF1F4B5B6803F0C3
:1013C0001003002BF9D11A4B194A926822F47D02BE
:1013D0009A60174B164A926842F492029A60144B34
:1013E000134A126842F080721A6000BF104B1B68EB
:1013F00003F00073002BF9D00D4B0D4A926822F0D8
:1014000003029A600A4B0A4A926842F003029A6009
:1014100000BF074B9B6803F00C030C2BF9D1012391
:1014200000E0002318461437BD465DF8047B704782
:1014300000380240003C02400070004080B483B09D
:1014400000AF00237B6000233B60394B384A1268B1
:1014500042F001021A60364B1B6803F002033B6046
:101460007B6801337B603B68002B03D17B68B3F55D
:10147000A06FF0D12E4B1B6803F00203002B50D05D
:101480002C4B2C4A126842F004021A60294B294A5C
:10149000126842F002021A60264B264A126842F095
:1014A00001021A60224B224A526A42F080525A626A
:1014B000214B4FF400621A6000BF1F4B5B6803F0C2
:1014C0001003002BF9D11A4B194A926822F47D02BD
:1014D0009A60174B164A926842F488029A60144B3D
:1014E000134A126842F080721A6000BF104B1B68EA
:1014F00003F00073002BF9D00D4B0D4A926822F0D7
:1015000003029A600A4B0A4A926842F003029A6008
:1015100000BF074B9B6803F00C030C2BF9D1012390
:1015200000E0002318460C37BD465DF8047B704789
:1015300000380240003C02400070004080B584B09A
:1015400000AF01200121FFF70BFE40F69F737B6087
:1015500047F6FF433B8000233B8100237B803B46D3
:101560004FF08040194600F0CDFF4FF08040012140
:10157000012201F0A7F81C233B7300237B73012396
:10158000BB730123FB7307F10C03184600F010FC3A
:101590001037BD4680BD00BF80B582B000AF0023CC
:1015A0007B6049484949FFF767FA474B1B68002BA6
:1015B00003DA464B1B68002B3DDB434B1B68444A58
:1015C00082FB03129210DB17D31ADBB23033DAB28C
:1015D000404B5A703C4B19683D4B83FB01239A10DA
:1015E000CB17D21A13469B0013445B00CA1AD3B21E
:1015F0003033DAB2374B9A70344B1B68344A82FB73
:1016000003129210DB17D31ADBB23033DAB2314B4C
:101610001A712E4B19682E4B83FB01239A10CB179E
:10162000D21A13469B0013445B00CA1AD3B230335C
:10163000DAB2284B5A71002001F0BCF80820FEF7FE
:10164000C9FF1E200421FEF7AFFF2248FEF740FE2F
:10165000214B1B78DB009BB29BB21BB204201946C6
:10166000FEF7A2FF0320FEF7B5FF00237B6022E018
:101670007B68DBB23133DBB21846FEF743FE3A201B
:10168000FEF740FE7868FFF769FB03461846FEF751
:101690001FFE114B1B781B019AB2104B1B889BB28B
:1016A00013449BB29BB21BB204201946FEF77CFF89
:1016B0007B6801337B607B68032BD9DD01F004F983
:1016C0000837BD4680BD00BF480000204C00002008
:1016D00067666666280000200400002038000020AD
:1016E00080B582B002AF002001F064F80320FEF75D
:1016F00071FF1E4B1B78DB009BB204339BB29BB285
:101700001BB201220092002000214FF4C872FEF7A4
:10171000BDFD00200121FEF771FF04200221FEF72C
:1017200043FF1348FEF7D4FD104B1B78DB009BB240
:1017300004339BB29BB21BB204201946FEF734FF60
:101740000220FEF747FF01200021FEF757FF09485E
:10175000FEF7BEFD01F0B8F804200021FEF724FFDB
:101760000448FFF779FABD4680BD00BF04000020A1
:10177000703200087D00002080B582B000AFFFF716
:10178000DDFEFFF753FAFFF7B7F900F0F9FF00208D
:1017900001F010F801F056F801F096F81E4B1B7896
:1017A000002B2AD01D4B1B78012B0AD1FFF798FF85
:1017B000194B00221A704FF08040012100F00AFFFF
:1017C00018E0164B1B78022B14D1144B5B78FB717D
:1017D000124B9B78BB71114BDB78013B7B71F97924
:1017E000BA797B79084611461A46FFF7F3F80C4B95
:1017F00001221A70094B00221A70094B1B78002B2A
:1018000004D0FFF7C9FE064B00221A700020012108
:10181000FFF736F8C2E700BF450100207C0000203A
:101820006800002080B500AF4FF08040012100F03B
:101830006DFF0346002B0CD0064B01221A704FF0AF
:101840008040012100F08CFF4FF08040002100F02B
:10185000C1FE80BD6800002080B400AFBD465DF8C9
:10186000047B704780B400AFFEE700BF80B400AFD8
:10187000FEE700BF80B400AFFEE700BF80B400AF5A
:10188000FEE700BF80B400AFBD465DF8047B704743
:1018900080B400AFBD465DF8047B704780B400AFF4
:1018A000BD465DF8047B704780B400AFBD465DF86F
:1018B000047B704780B582B000AF124B7B60124B47
:1018C0003B6007E03B681A1D3A607A68111D796039
:1018D00012681A603A680D4B9A42F3D30C4B3B6086
:1018E00004E03B681A1D3A6000221A603A68094B0E
:1018F0009A42F6D3FFF7C2FCFFF73EFF0837BD461A
:1019000080BD00BF803200080000002038000020A9
:10191000380000207C31002080B58AB000AF7860AC
:10192000396000237B6200233B620023FB610023BC
:10193000BB617B681B8A9BB27B627B6A23F440534A
:101940007B623B68DB887A6A13437B627B6A9AB26C
:101950007B681A827B689B899BB27B627B6A23F4DB
:10196000B05323F00C037B623B689A883B681B8969
:1019700013439AB23B685B8913439BB27A6A134361
:101980007B627B6A9AB27B689A817B689B8A9BB2F6
:101990007B627B6A23F440737B623B689B897A6A33
:1019A00013437B627B6A9AB27B689A8207F10803D1
:1019B0001846FFF79BFA7A682F4B9A4202D17B694F
:1019C0003B6201E03B693B627B689B899BB29BB2B7
:1019D0001BB2002B0CDA3A6A13469B0013449A00A0
:1019E0001A443B681B685B00B2FBF3F3FB610BE03E
:1019F0003A6A13469B0013449A001A443B681B68DA
:101A00009B00B2FBF3F3FB61FA691C4BA3FB0213CF
:101A10005B091B017B627B6A1B09642202FB03F3E7
:101A2000FA69D31ABB617B689B899BB29BB21BB2DC
:101A3000002B0DDABB69DB0003F132020F4BA3FB75
:101A400002135B0903F007037A6A13437B620CE01D
:101A5000BB691B0103F13202084BA3FB02135B09B4
:101A600003F00F037A6A13437B627B6A9AB27B6846
:101A70001A812837BD4680BD003801401F85EB51D3
:101A800080B483B000AF78600B46FB70FB78002B0E
:101A900008D07B689B899BB243F400539AB27B6861
:101AA0009A8107E07B689B899BB223F400539AB22A
:101AB0007B689A810C37BD465DF8047B704700BF98
:101AC00080B483B000AF78607B689B889BB2C3F31F
:101AD00008039BB218460C37BD465DF8047B70477F
:101AE00080B487B000AF786013460A467A807B7076
:101AF00000233B610023FB600023BB6000237B616C
:101B00007B687B617B88DBB25B09DBB23B617B88F6
:101B100003F01F03FB60FB68012202FA03F3BB60C2
:101B20003B69012B03D17B690C337B6109E03B6985
:101B3000022B03D17B6910337B6102E07B69143394
:101B40007B617B78002B06D07B697A691168BA6863
:101B50000A431A6006E07B697A691168BA68D24361
:101B60000A401A601C37BD465DF8047B704700BF11
:101B700080B487B000AF78600B467B800023FB60A9
:101B800000237B610023BB600023FB747B88DBB2F6
:101B90005B09DBB2BB607B8803F01F037B617B6961
:101BA000012202FA03F37B61BB68012B06D17B683B
:101BB0009B899BB27A6913407B610FE0BB68022B63
:101BC00006D17B681B8A9BB27A6913407B6105E072
:101BD0007B689B8A9BB27A6913407B617B881B0A76
:101BE0009BB2FB60FB68012202FA03F3FB607B6897
:101BF0001B889BB2FA681340FB607B69002B05D001
:101C0000FB68002B02D00123FB7401E00023FB746E
:101C1000FB7C18461C37BD465DF8047B704700BF4F
:101C200080B582B000AF78607A68174B9A420AD1CB
:101C30004FF480500121FFF7B1FA4FF4805000219A
:101C4000FFF7ACFA1CE07A68104B9A420AD14FF4C5
:101C500080400121FFF7C0FA4FF480400021FFF7D8
:101C6000BBFA0DE07A680A4B9A4209D14FF4004062
:101C70000121FFF7B1FA4FF400400021FFF7ACFA61
:101C80000837BD4680BD00BF00300140003800402D
:101C9000003C004080B485B000AF7860396000231C
:101CA000FB817B681B88FB81FB8903F44153FB812B
:101CB0003B681A883B685B8813439AB23B689B88F1
:101CC00013439AB23B68DB8813439AB23B681B8983
:101CD00013439AB23B685B8913439AB23B689B8972
:101CE00013439AB23B68DB8913439AB2FB891343CF
:101CF000FB817B68FA891A807B689B8B9BB223F4FB
:101D000000639AB27B689A833B681A8A7B681A825E
:101D10001437BD465DF8047B704700BF80B483B0C4
:101D200000AF78600B46FB70FB78002B08D07B6817
:101D30001B889BB243F040039AB27B681A8007E08D
:101D40007B681B889BB223F040039AB27B681A80A1
:101D50000C37BD465DF8047B704700BF80B483B08C
:101D600000AF78600B467B807B687A889A810C375D
:101D7000BD465DF8047B704780B485B000AF7860E5
:101D80000B467B800023FB737B681B899AB27B88A0
:101D900013409BB2002B02D00123FB7301E0002310
:101DA000FB73FB7B18461437BD465DF8047B704718
:101DB00080B485B000AF78600023FB730023BB7351
:101DC0000F237B737B68DB78002B37D0254BDB68D8
:101DD000DB4303F4E0631B0AFB73FB7BC3F10403E7
:101DE000BB737A7BFB7B42FA03F37B737B685B7884
:101DF0001A46BB7B02FA03F3FB737B689A787B7B02
:101E00001340DAB2FB7B1343FB73FB7B1B01FB73B9
:101E1000154A7B681B781344FA7B83F80023124B26
:101E20007A6812785209D2B27968097801F01F01F4
:101E3000012000FA01F143F822100EE00A4B7A6803
:101E400012785209D2B27968097801F01F01012095
:101E500000FA01F1203243F822101437BD465DF834
:101E6000047B704700ED00E000E100E080B584B045
:101E700000AF78600023FB73194BCA225A62184BDB
:101E800053225A6200F02EF80346002B02D10023A1
:101E9000FB731CE0124B124A926822F040029A60D7
:101EA0000F4B0F4A91687A6812680A439A600C4B8C
:101EB0007A6892681A610A4B094A11697A6852680D
:101EC00012040A431A6100F047F80123FB73044B24
:101ED000FF225A62FB7B18461037BD4680BD00BF0B
:101EE0000028004080B485B000AF00237B60002351
:101EF000FB730023BB60174BDB6803F04003002B30
:101F00001ED1144B4FF0FF32DA60124BDB6803F046
:101F10004003BB607B6801337B607B68B3F5005F87
:101F200002D0BB68002BF0D00A4BDB6803F0400303
:101F3000002B02D00123FB7304E00023FB7301E0BC
:101F40000123FB73FB7B18461437BD465DF8047B09
:101F5000704700BF0028004080B400AF044B044A23
:101F6000D26822F08002DA60BD465DF8047B7047DB
:101F70000028004080B485B000AF00237B600023C0
:101F8000FB730023BB60184BCA225A62164B5322C4
:101F90005A62154B144AD26822F0A002DA60124B42
:101FA000DB6803F02003BB607B6801337B607B68E8
:101FB000B3F5004F02D0BB68002BF0D00A4BDB68B2
:101FC00003F02003002B02D00123FB7301E0002368
:101FD000FB73054BFF225A62FB7B18461437BD4644
:101FE0005DF8047B704700BF0028004090B585B0C5
:101FF00000AF786039600023FB600023FB727B68D0
:10200000002B09D13D4B9B6803F04003002B14D1FA
:102010003B680022DA7010E0384B9B6803F0400305
:10202000002B07D03B681B78184600F04FFA034698
:10203000FB6002E03B680022DA707B68002B0FD067
:102040003B681B781A043B685B781B021A433B68A9
:102050009B781A433B68DB781B041343FB601BE04F
:102060003B681B78184600F013FA03461C043B68D3
:102070005B78184600F00CFA03461B021C433B68D1
:102080009B78184600F004FA034644EA03023B68D2
:10209000DB781B041343FB60184BCA225A62174BB0
:1020A00053225A62FFF71EFF0346002B02D1002382
:1020B000FB721BE0114AFB6803F07F3323F0FE4301
:1020C0001360FFF749FF0D4B9B6803F02003002BC3
:1020D0000AD1FFF74FFF0346002B02D10023FB720A
:1020E00004E00123FB7201E00123FB72034BFF229A
:1020F0005A62FB7A18461437BD4690BD002800404E
:1021000080B584B000AF786039600023FB60224B5B
:102110001B6803F07F3323F0FE43FB60FB6803F48E
:102120007C131B0CDAB23B681A70FB6803F4FE43A5
:102130001B0ADAB23B685A70FB68DBB203F07F031C
:10214000DAB23B689A70FB6803F480031B0CDAB2C6
:102150003B68DA707B68002B1AD13B681B78184605
:1021600000F0B4F903461A463B681A703B685B7886
:10217000184600F0ABF903461A463B685A703B68B4
:102180009B78184600F0A2F903461A463B689A70FD
:102190001037BD4680BD00BF0028004090B587B015
:1021A00000AFF860B9607A6000237B61FB68002BA8
:1021B00009D1474B9B6803F04003002B27D17B6874
:1021C0000022DA7023E0424B9B6803F04003002BAF
:1021D00007D07B681B78184600F078F903467B61CE
:1021E00002E07B680022DA707B689B68002B07D1D5
:1021F0007B681B7B184600F069F903467B6106E0AB
:102200007B681B7B184600F061F903467B61FB6825
:10221000002B19D07B681B781A047B685B781B0243
:102220001A437B689B781A437B68DB781B041A434C
:102230007B681B7B1B061A437B689B681A437B6881
:102240005B6813437B612BE07B681B78184600F0CA
:102250001FF903461C047B685B78184600F018F9E8
:1022600003461B021C437B689B78184600F010F95C
:10227000034644EA03027B68DB781B0442EA03045A
:102280007B681B7B184600F003F903461B0644EAF3
:1022900003027B689B681A437B685B6813437B611E
:1022A0000B4BCA225A620A4B53225A62BB68B3F5DF
:1022B000807F03D1064B7A69DA6102E0044B7A69C8
:1022C0001A62034BFF225A621C37BD4690BD00BF05
:1022D0000028004080B487B000AF78600B46FB70E8
:1022E0000023FB6000233B610023FB751F4BCA22C8
:1022F0005A621E4B53225A62FB78002B08D01B4BAC
:102300001A4A91687A680A439A600123FB7522E0B1
:10231000164B164A91687A68D2430A409A60134B6A
:10232000DA687B681B0A13403B61FB680133FB6082
:10233000FB68B3F5005F02D03B69002BEFD00B4B7D
:10234000DA687B681B0A1340002B02D10023FB755F
:1023500001E00123FB75054BFF225A62FB7D184605
:102360001C37BD465DF8047B704700BF0028004065
:1023700080B483B000AF78600B46FB70194BCA2263
:102380005A62184B53225A62FB78002B10D0154B1F
:10239000144A91687A6822F004020A439A60114B49
:1023A000104A116C7A6802F004020A431A6411E0C0
:1023B0000C4B0C4A91687A6822F00402D2430A401E
:1023C0009A60084B074A116C7A6802F00402D24303
:1023D0000A401A64034BFF225A620C37BD465DF86F
:1023E000047B70470028004080B487B000AF78605D
:1023F0000023FB7500233B610023FB60154B1B6C26
:1024000003F004033B61134B9A687B681A407B68B6
:102410009B0C796821FA03F3D90B3B690B401343FA
:10242000FB600C4BDA687B681B0913403B61FB685F
:10243000002B06D03B699BB2002B02D00123FB7519
:1024400001E00023FB75FB7D18461C37BD465DF897
:10245000047B70470028004080B485B000AF7860EE
:102460000023FB607B681B09FB60084BFA6892B293
:1024700042F08002D143054AD26802F080020A434A
:10248000DA601437BD465DF8047B704700280040D1
:1024900080B485B000AF0346FB710023FB7305E0F9
:1024A000FB7B0133FB73FB790A3BFB71FB79092B47
:1024B000F6D8FB7B1B01DAB2FB791343DBB218467B
:1024C0001437BD465DF8047B704700BF80B485B00B
:1024D00000AF0346FB710023FB73FB791B09DBB2E2
:1024E0001A46920013445B00FB73FB7903F00F0361
:1024F000DAB2FB7B1344DBB218461437BD465DF8F5
:10250000047B704780B485B000AF786039600023E9
:10251000FB817B681B88FB817B68B3F1804F0BD00C
:102520007A681C4B9A4207D07A681B4B9A4203D0B8
:102530007A681A4B9A4208D1FB8923F07003FB8119
:102540003B685A88FB891343FB817A68144B9A4293
:102550000CD07A68134B9A4208D0FB8923F440735D
:10256000FB813B681A89FB891343FB817B68FA89ED
:102570001A803B685A687B68DA623B681A887B6815
:102580001A857B6801229A821437BD465DF8047B68
:10259000704700BF0004004000080040000C0040ED
:1025A000001000400014004080B483B000AF786099
:1025B0007B684FF0FF325A607B6800221A807B688C
:1025C00000221A817B6800225A800C37BD465DF8D4
:1025D000047B704780B483B000AF78600B46FB701B
:1025E000FB78002B08D07B681B889BB243F001036B
:1025F0009AB27B681A8007E07B681B889BB223F045
:1026000001039AB27B681A800C37BD465DF8047BE3
:10261000704700BF80B485B000AF78603960002398
:10262000FB810023BB817B681B8C9BB223F48073EE
:102630009AB27B681A847B681B8CBB817B689B8BFE
:10264000FB81FB8923F07003FB813B681A88FB89BF
:102650001343FB81BB8923F40073BB813B681B8957
:102660001B029AB2BB891343BB813B685B881B0288
:102670009AB2BB891343BB813B685A687B68DA63B3
:102680007B68FA899A837B68BA891A841437BD46B5
:102690005DF8047B704700BF80B483B000AF786002
:1026A0007B6800221A807B6800225A807B680022A7
:1026B0005A607B6800221A810C37BD465DF8047BA6
:1026C000704700BF80B483B000AF786013460A46FD
:1026D0007A807B707B78002B08D07B689B899AB2CC
:1026E0007B8813439AB27B689A8109E07B689B8957
:1026F0009AB27B88DB439BB213409AB27B689A8183
:102700000C37BD465DF8047B704700BF80B485B0D0
:1027100000AF78600B467B800023FB730023BB81F6
:1027200000237B817B681B8A9AB27B881340BB8124
:102730007B689B899AB27B8813407B81BB89002B85
:1027400005D07B89002B02D00123FB7301E000231D
:10275000FB73FB7B18461437BD465DF8047B70475E
:1027600080B483B000AF78600B467B807B88DB430E
:102770009AB27B681A820C37BD465DF8047B7047BD
:1027800080B500AF00F04EF900F0B4F900F07EF92A
:1027900007484FF40061FEF70FF805484FF48051E9
:1027A000FEF70AF84CF2503000F0E2F980BD00BFAD
:1027B0000004024080B487B000AF0346FB80B7F945
:1027C0000630002B01D0002300E0FF23FB73002321
:1027D0007B6115E000233B610CE00D4A7B693221EF
:1027E00001FB03F13B690B441344FA7B1A703B690C
:1027F00001333B613B69312BEFDD7B6901337B6149
:102800007B69EF2BE6DD1C37BD465DF8047B704726
:102810009C02002080B500AF0020FFF7CBFF0848E6
:102820004FF48051FDF7BAFF042000F081F800203A
:1028300000F07EF802484FF48051FDF7BDFF80BDE7
:102840000004024080B500AF08484FF48061FDF7F6
:10285000A5FF07480121FFF7BDFE04484FF40061C2
:10286000FDF79CFFFFF7D6FF80BD00BF00040240CC
:102870000008004080B584B000AF78600023FB60A2
:102880007B68DBB20133DBB2184600F051F800235D
:10289000FB600EE00B4A7B68322101FB03F1FB6811
:1028A0000B4413441B78184600F042F8FB680133D0
:1028B000FB60FB68312BEDDD002000F039F81037AC
:1028C000BD4680BD9C02002080B582B000AF0023D1
:1028D000FB7000237B600123FB7014484FF4805190
:1028E000FDF75CFF4CF2503000F042F9FB781846DF
:1028F00000F01EF800237B6005E07868FFF7BAFF60
:102900007B6801337B607B68EF2BF6DD002000F0F5
:102910000FF84CF2503000F02BF904484FF480517E
:10292000FDF74AFF0837BD4680BD00BF00040240E6
:1029300080B582B000AF0346FB7100BF074802219B
:10294000FFF71AFA0346002BF8D0FB799BB2034835
:102950001946FFF703FA0837BD4680BD003800402E
:1029600080B487B000AF13460246FA800A46BA80A8
:102970007B80B7F90630002B00DA0733DB109BB2FF
:102980001BB27B61B7F90620244B1340002B03DAFE
:10299000013B63F0070301339BB21BB23B61B7F904
:1029A00004301F4A322101FB03F17B690B441344BD
:1029B0001B78FB737B88002B14D1B7F904300121FD
:1029C0003A6901FA02F2D1B2FA7B0A43D2B2FA733F
:1029D000134A322101FB03F17B690B441344FA7B58
:1029E0001A7015E0B7F9043001213A6901FA02F2D0
:1029F000D2B2D243D1B2FA7B0A40D2B2FA73084AB9
:102A0000322101FB03F17B690B441344FA7B1A70FA
:102A10001C37BD465DF8047B704700BF070000808F
:102A20009C02002080B582B000AF02200121FEF799
:102A300079FB04200121FEF775FB3B461846FDF7A4
:102A400093FE4FF461433B6002233B7103237B7190
:102A50000023BB710223FB713B460B481946FDF76F
:102A6000EFFD4FF4E0533B6001233B710023BB714A
:102A700003237B710023FB713B4603481946FDF796
:102A8000DFFD0837BD4680BD0004024080B586B03A
:102A900000AF04200121FEF763FB14480821022245
:102AA000FDF798FE07F10C031846FFF77DFD0023A4
:102AB000BB8240F22B133B6147F6FF43BB8107F11A
:102AC0000C030B481946FFF71DFD3B461846FFF760
:102AD000E3FD01237B8030233B803B4604481946BD
:102AE000FFF798FD1837BD4680BD00BF00040240C7
:102AF0000008004080B586B000AF4FF4804001214F
:102B0000FEF72EFB18480D210522FDF763FE16483F
:102B10000E210522FDF75EFE13480F210522FDF769
:102B200059FE1248FFF77CF80023BB8000233B814D
:102B300000237B810023BB814FF40073FB811823AA
:102B40003B8280237B820723BB824FF48273FB800E
:102B50003B1D06481946FFF79DF804480121FFF781
:102B6000DDF81837BD4680BD000402400038004043
:102B700080B483B000AF786000BF7B685A1E7A6073
:102B8000002BFAD10C37BD465DF8047B704700BFBF
:102B9000844641EA000313F0030349D1403A23D3AA
:102BA0000B6803604B6843608B688360CB68C360CD
:102BB0000B6903614B6943618B698361CB69C361B5
:102BC0000B6A03624B6A43628B6A8362CB6AC3629D
:102BD0000B6B03634B6B43638B6B8363CB6BC36385
:102BE00040304031403ADBD230320BD30B680360C7
:102BF0004B6843608B688360CB68C36010301031D2
:102C0000103AF3D20C3205D351F8043B40F8043BA0
:102C1000043AF9D2043208D0D2071CBF11F8013BA4
:102C200000F8013B01D30B8803806046704700BF6A
:102C3000082A13D38B07B1D010F00303AED0C3F131
:102C40000403D21ADB071CBF11F8013B00F8013B5B
:102C5000A4D331F8023B20F8023B9FE7043AD9D3D2
:102C6000013A11F8013B00F8013BF9D20B780370EF
:102C70004B7843708B78837060467047F0B484075C
:102C800043D0541E002A3ED0CDB2034603E0621E5C
:102C9000002C38D0144603F8015B9A07F7D1032CB7
:102CA0002AD9CDB245EA05250F2C45EA054515D9A7
:102CB000A4F110073F0903F1100606EB07161A46A8
:102CC000156055609560D5601032B242F8D104F0BD
:102CD0000F040137032C03EB07130DD91E462246C0
:102CE000043A032A46F8045BFAD8221F22F00302B2
:102CF0000432134404F003042CB1C9B21C4403F899
:102D0000011BA342FBD1F0BC704714460346C6E743
:102D100020F0030110F00300C0F1000051F8043B63
:102D200000F1040C4FEACC0C6FF000021CBF22FA39
:102D30000CF213434FF0010C4CEA0C2C4CEA0C4CF7
:102D4000A3EB0C0222EA030212EACC1204BF51F8F0
:102D5000043B0430F4D013F0FF0F1FBF013013F415
:102D60007F4F013013F47F0F18BF0130704700BF51
:102D700000000000003E5B4F5B3E3E6B4F6B3E1C15
:102D80003E7C3E1C183C7E3C181C577D571C1C5E2C
:102D90007F5E1C00183C1800FFE7C3E7FF00182403
:102DA0001800FFE7DBE7FF30483A060E26297929AD
:102DB00026407F050507407F05253F5A3CE73C5AE2
:102DC0007F3E1C1C08081C1C3E7F14227F22145FBF
:102DD0005F005F5F06097F017F006689956A60601A
:102DE00060606094A2FFA29408047E040810207E14
:102DF000201008082A1C08081C2A08081E10101099
:102E0000100C1E0C1E0C30383E3830060E3E0E06DE
:102E1000000000000000005F000000070007001431
:102E20007F147F14242A7F2A1223130864623649F0
:102E30005620500008070300001C224100004122D8
:102E40001C002A1C7F1C2A08083E080800807030DD
:102E5000000808080808000060600020100804024C
:102E60003E5149453E00427F400072494949462152
:102E700041494D331814127F1027454545393C4AC6
:102E800049493141211109073649494936464949DD
:102E9000291E000014000000403400000008142225
:102EA0004114141414140041221408020159090693
:102EB0003E415D594E7C1211127C7F494949363E94
:102EC000414141227F4141413E7F494949417F097A
:102ED0000909013E414151737F0808087F00417F85
:102EE00041002040413F017F081422417F40404083
:102EF000407F021C027F7F0408107F3E4141413E1B
:102F00007F090909063E4151215E7F09192946269C
:102F10004949493203017F01033F4040403F1F20A0
:102F200040201F3F4038403F631408146303047877
:102F300004036159494D43007F4141410204081097
:102F400020004141417F04020102044040404040D2
:102F5000000307080020545478407F284444383840
:102F600044444428384444287F38545454180008B2
:102F70007E090218A4A49C787F0804047800447D8C
:102F800040002040403D007F1028440000417F4029
:102F9000007C047804787C0804047838444444387D
:102FA000FC1824241818242418FC7C08040408485D
:102FB0005454542404043F44243C4040207C1C20AE
:102FC00040201C3C4030403C44281028444C909009
:102FD000907C4464544C4400083641000000770063
:102FE00000004136080002010204023C2623263C70
:102FF0001EA1A161123A4040207A385454555921FB
:1030000055557941215454784121555478402054E4
:103010005579400C1E527212395555555939545430
:10302000545939555454580000457C410002457D9F
:10303000420001457C40F0292429F0F0282528F0A1
:103040007C545545002054547C547C0A097F4932F5
:10305000494949323248484832324A4848303A4170
:1030600041217A3A42402078009DA0A07D39444415
:1030700044393D4040403D3C24FF2424487E4943A0
:10308000662B2FFC2F2BFF0929F620C0887E090311
:1030900020545479410000447D413048484A323838
:1030A0004040227A007A0A0A727D0D19317D262964
:1030B000292F28262929292630484D40203808085C
:1030C000080808080808382F10C8ACBA2F10283490
:1030D000FA00007B000008142A142222142A140883
:1030E000AA005500AAAA55AA55AA000000FF001080
:1030F0001010FF00141414FF001010FF00FF101038
:10310000F010F0141414FC001414F700FF0000FF7A
:1031100000FF1414F404FC141417101F10101F10D7
:103120001F1414141F00101010F0000000001F10D6
:103130001010101F10101010F010000000FF1010E1
:1031400010101010101010FF10000000FF140000ED
:10315000FF00FF00001F10170000FC04F4141417F8
:1031600010171414F404F40000FF00F714141414DE
:10317000141414F700F7141414171410101F101F50
:10318000141414F4141010F010F000001F101F009D
:1031900000001F14000000FC140000F010F01010DC
:1031A000FF10FF141414FF141010101F0000000073
:1031B000F010FFFFFFFFFFF0F0F0F0F0FFFFFF0067
:1031C00000000000FFFF0F0F0F0F0F38444438447A
:1031D0007C2A2A3E147E02020606027E027E0263DA
:1031E000554941633844443C04407E201E20060279
:1031F0007E020299A5E7A5991C2A492A1C4C720156
:10320000724C304A4D4D303048784830BC625A4696
:103210003D3E494949007E0101017E2A2A2A2A2A87
:1032200044445F444440514A444040444A51400071
:1032300000FF0103E080FF000008086B6B083612F6
:10324000362436060F090F0600001818000000107B
:1032500010003040FF0101001F01011E00191D1761
:1032600012003C3C3C3C000000000000000000005C
:103270004E6577204D65737361676521000000001E
:1032800004000100010100006C320008030406087C
:103290000C101820300000000000000001020304A0
:1032A0000102030406070809203F3F3A3F3F202060
:0832B00000000000C90000004D
:0400000508000000EF
:00000001FF
